:020000040800F2
:100000004838002015020008F10A000855080008C9
:10001000ED0A00087D0500089F1A00080000000096
:100020000000000000000000000000003114000883
:100030000907000800000000ED130008371700084A
:100040002F0200082F0200082F0200082F020008CC
:100050002F0200082F0200082F0200082F020008BC
:100060002F0200082F0200082F0200082F020008AC
:100070002F0200082F0200082F0200082F0200089C
:100080002F0200082F0200082F0200082F0200088C
:100090002F0200082F0200082F0200082F0200087C
:1000A0002F0200082F0200082F0200082F0200086C
:1000B0002F0200082F0200082F0200082F0200085C
:1000C0002F0200082F0200082F0200082F0200084C
:1000D0002F020008B91900082F0200082F0200089B
:1000E0002F0200082F0200082F0200082F0200082C
:1000F0002F0200082F0200082F0200082F0200081C
:100100002F0200082F0200082F0200082F0200080B
:100110002F0200082F0200082F0200082F020008FB
:100120002F0200082F0200082F0200082F020008EB
:1001300000F002F800F05EF80AA090E8000C82449B
:100140008344AAF10107DA4501D100F053F8AFF278
:10015000090EBAE80F0013F0010F18BFFB1A43F0A5
:100160000103184718350000383500000A444FF0E5
:10017000000C10F8013B13F0070408BF10F8014B06
:100180001D1108BF10F8015B641E05D010F8016B4B
:10019000641E01F8016BF9D113F0080F1EBF10F8AF
:1001A000014BAD1C0C1B09D16D1E58BF01F801CBD2
:1001B000FAD505E014F8016B01F8016B6D1EF9D555
:1001C0009142D6D37047000000230024002500266A
:1001D000103A28BF78C1FBD8520728BF30C148BFAA
:1001E0000B6070471FB59DE8030000F0DDF81FBDF0
:1001F00010B510BD00F033F91146FFF7F3FF01F021
:1002000021FE00F051F903B4FFF7F2FF03BC01F047
:1002100048FC00000948804709480047FEE7FEE720
:10022000FEE7FEE7FEE7FEE7FEE7FEE7FEE7FEE7A6
:1002300004480549054A064B704700003917000875
:10024000310100084832002048380020483400209E
:1002500048340020704770B5064600F089F80568FC
:1002600006F10B0020F00704B4429CBF002070BDD3
:100270002B466A68BAB11068A04210D304F1080195
:1002800088423CBF5068586007D3516810194160DC
:100290001168091B016058601460101D70BD134681
:1002A0005268002AE7D12146284600F069F8002864
:1002B000DED170BD70B50446051F00F059F8006826
:1002C000002C14BF446870BD002C18BFAC423CBF6A
:1002D00020466468F8D301680A18AA4218BF45602E
:1002E00003D12A6805461144016028684119A142DA
:1002F0001CBF6C6070BD616869602168084428603B
:1003000070BD10B5203AC0F00B80B1E81850203A0B
:10031000A0E81850B1E81850A0E81850BFF4F5AFA5
:100320005FEA027C24BFB1E81850A0E8185044BF2F
:1003300018C918C0BDE810405FEA827C24BF51F89C
:10034000043B40F8043B08BF7047D20728BF31F890
:10035000023B48BF11F8012B28BF20F8023B48BFE1
:1003600000F8012B704770477047704770470000D6
:1003700000487047F0310020704770477047704761
:1003800038B504460A4600206946AFF300800028CD
:1003900008BF38BD02460099204600F03FF8012012
:1003A00038BD012000F054B8F8B5AFF30080054621
:1003B00000200C46102000BF0646A819A0420DD907
:1003C000324669460020AFF30080070008BF00F006
:1003D0003FF80098A04218BF0546C419FFF7C8FFB0
:1003E00005600746F01D20F007004619284600F07A
:1003F0000AF8B44208BFF8BDA21B31463868BDE810
:10040000F84000F00BB800210160C0E9011070470E
:100410001020704700487047E831002003464068CC
:100420008C46002818BF88423CBF03464068F8D37A
:1004300018681844884207D00CF1030020F0070028
:10044000001D411A521A0146081D0A60FFF732BF0B
:1004500010B500F035F8BDE8104000F02BB8754637
:10046000FFF7D8FFAE4605006946534620F0070067
:10047000854618B020B5FFF7DBFEBDE820404FF001
:1004800000064FF000074FF000084FF0000B21F07E
:100490000701AC46ACE8C009ACE8C009ACE8C0094B
:1004A000ACE8C0098D4670470446AFF30080204693
:1004B000FFF7A9FE002801D001F0F3BA7047000051
:1004C00010B5012805D0002103A000F021F801207B
:1004D00010BD09A1F8E7000053494752544D454D5E
:1004E0003A204F7574206F662068656170206D65D5
:1004F0006D6F7279000000003A2048656170206DD0
:10050000656D6F727920636F7272757074656400C7
:1005100070B505460C460A2000E06D1C01F0C3FAD8
:1005200035B128780028F8D102E0641C01F0BBFA4C
:1005300014B120780028F8D1BDE870400A2001F0FD
:10054000B2BA000008B50121202000F061FF4FF48D
:100550008040ADF8000010208DF8030003208DF8D6
:1005600002006946044800F0D0F84FF48041024888
:1005700000F05FF908BD00000014014000BFFEE775
:1005800001684FF6FE721140016000210160416078
:100590008160C1604B49884208D14A49083949689D
:1005A00041F00F01474A083A51608AE04549143149
:1005B000884208D143490839496841F0F001414A6D
:1005C000083A51607DE03F492831884208D13D49D1
:1005D0000839496841F470613A4A083A516070E05C
:1005E00038493C31884208D136490839496841F4D4
:1005F0007041344A083A516063E0324950318842D0
:1006000008D130490839496841F470212D4A083A27
:10061000516056E02B496431884208D12949083994
:10062000496841F47001274A083A516049E0254978
:100630007831884208D123490839496841F070610E
:10064000204A083A51603CE01F49884206D1011F08
:10065000096841F00F01021F116032E01A4914319C
:10066000884208D11849091F096841F0F001164A6B
:10067000121F116025E014492831884208D112491F
:10068000091F096841F470610F4A121F116018E0D8
:100690000D493C31884208D10B49091F096841F4D2
:1006A0007041094A121F11600BE00749503188421E
:1006B00007D10549091F096841F47021024A121F38
:1006C00011607047080002400804024010B5002283
:1006D000026847F6F0739A430C6A8B6823430C69EF
:1006E00023434C6923438C692343CC6923434C6ADD
:1006F00023438C6A23431A430260CB6843600B6830
:1007000083604B68C36010BD70472DE9F04102461D
:1007100000250026002000230024002791F803C0B4
:100720000CF00F0591F803C00CF0100CBCF1000F99
:1007300003D091F802C04CEA050591F800C0BCF165
:10074000000F31D0146800202BE04FF0010C0CFAA0
:1007500000F3B1F800C00CEA03069E4220D18300EA
:100760004FF00F0C0CFA03F7BC4305FA03FC4CEAFC
:10077000040491F803C0BCF1280F06D14FF0010C1E
:100780000CFA00FCC2F814C00AE091F803C0BCF1F6
:10079000480F05D14FF0010C0CFA00FCC2F810C054
:1007A000401C0828D1D31460B1F800C0BCF1FF0F81
:1007B00034DD546800202EE000F1080C4FF00108F1
:1007C00008FA0CF3B1F800C00CEA03069E4221D1EE
:1007D00083004FF00F0C0CFA03F7BC4305FA03FC3F
:1007E0004CEA040491F803C0BCF1280F05D100F1D4
:1007F000080C08FA0CF8C2F8148091F803C0BCF198
:10080000480F07D100F1080C4FF0010808FA0CF866
:10081000C2F81080401C0828CED35460BDE8F08197
:100820000246002093680B400BB1012000E000203D
:100830007047416170470161704700000020034923
:10084000C8700349887048700870704728000020FD
:100850009C0A002000BFFEE710B504216248FFF7A4
:10086000DFFFB0B90A2001F0B1F904215E48FFF7BB
:10087000D7FF70B901205D49086000BF04215A48C4
:10088000FFF7CEFF0028F9D000205849086001206A
:1008900010BD08215448FFF7C3FFB0B90A2001F08A
:1008A00095F908215048FFF7BBFF70B901204F4967
:1008B000086000BF08214C48FFF7B2FF0028F9D0BC
:1008C00000204A4908600220E2E701214848FFF77A
:1008D000A7FFB0B90A2001F079F901214448FFF7D8
:1008E0009FFF70B901204149086000BF01214048C5
:1008F000FFF796FF0028F9D000203C49086003204C
:10090000C6E702213A48FFF78BFFB0B90A2001F091
:100910005DF902213648FFF783FF70B901203349A2
:10092000086000BF02213248FFF77AFF0028F9D0A3
:1009300000202E4908600420AAE708212C48FFF770
:100940006FFFB0B90A2001F041F908212848FFF7EC
:1009500067FF70B901202549086000BF08212448BD
:10096000FFF75EFF0028F9D000202049086005202D
:100970008EE704211E48FFF753FFB0B90A2001F0AB
:1009800025F904211A48FFF74BFF70B901201749D8
:10099000086000BF04211648FFF742FF0028F9D085
:1009A000002012490860062072E710211048FFF766
:1009B00037FFB0B90A2001F009F910210C48FFF700
:1009C0002FFF70B901200949086000BF10210848B5
:1009D000FFF726FF0028F9D000200449086007200F
:1009E00056E7002054E7000000180140B881224279
:1009F0000014014008B50121602000F009FD01202C
:100A0000ADF8000048208DF8030069461F48FFF745
:100A10007CFE0220ADF8000048208DF803006946F6
:100A20001A48FFF772FE0420ADF8000048208DF848
:100A3000030069461548FFF768FE0820ADF800007E
:100A400048208DF8030069461048FFF75EFE10202D
:100A5000ADF8000048208DF8030069460B48FFF709
:100A600054FE0420ADF8000048208DF803006946CC
:100A70000748FFF74AFE0820ADF8000048208DF82F
:100A8000030069460248FFF740FE08BD001401401C
:100A90000018014008B50121082000F0B9FC012030
:100AA000ADF8000010208DF8030003208DF802003F
:100AB00069460448FFF729FE01210248FFF7BBFE03
:100AC00008BD0000000C014000200AE0002105E004
:100AD0000022054B03EB80135A54491C4029F7DBD5
:100AE000401C8028F2DB70472011002000BFFEE789
:100AF00070472DE9F041002400250026002700BFA3
:100B000015E004F1B001C8B200F01CFC012000F0B7
:100B100019FC102000F016FC002504E0002000F075
:100B20003BFC681CC5B2802DF8DB601CC4B2082CED
:100B3000E7DBBDE8F0812DE9F05F07460C46904603
:100B40009946DDE90AAB26463D460DE0264607E01C
:100B50005B4652463146284600F046F8701CC6B245
:100B60004E45F5DD681CC5B24545EFDD00F0B4FB30
:100B7000BDE8F09F2DE9F05F06460F4690461C4603
:100B8000DDF828A04FF0000BE11704EB5171C910FC
:100B9000A4EBC10131B92046E11704EB5171C1F357
:100BA000C70506E02046E11704EB5171C910491C46
:100BB000CDB23D4614E02946304600F0AFFBB146C9
:100BC0000AE059460BF1010B1AF8010000F0E4FBB2
:100BD00009F1010000F0FF09C145F2DB681CC5B254
:100BE000A542E8DBBDE8F09F2DE9F04705460C463D
:100BF00090461E464FF0000A7F2D01DC3F2C01DDA0
:100C0000BDE8F08736B90021681E364A02EB801233
:100C1000601E1154012E06D10121681E314A02EBDB
:100C20008012601E1154022E06D10221681E2D4A28
:100C300002EB8012601E1154032E06D10321681EA0
:100C4000284A02EB8012601E1154042E06D10421A2
:100C5000681E244A02EB8012601E1154052E06D134
:100C60000521681E1F4A02EB8012601E1154062ED9
:100C700006D10621681E1B4A02EB8012601E115429
:100C80002046E11704EB5171C910C1F10701CFB241
:100C9000E11704EB5171C910A4EBC10101F0FF0988
:100CA000C9F107010120884000F0FF0AB8F1000FE8
:100CB0000AD00D4800EBC500C05D40EA0A000A49B1
:100CC00001EBC501C85509E0074800EBC500C05D50
:100CD00020EA0A00044901EBC501C85500F0FCFAFE
:100CE00000BF8DE720110020200D00202DE9FC47DA
:100CF00006460F4690469946DDE90A453B46424680
:100D000039463046CDE90045FFF715FF4B463246E0
:100D100039463046CDE90045FFF70DFF4B464246C8
:100D200049463046CDE90045FFF705FF4B464246B0
:100D300039464046CDE90045FFF7FDFE00F0CCFA0C
:100D4000BDE8FC871CB5022001213E235F22CDE9CE
:100D5000001028211046FFF7EEFE00F0BDFA1CBD82
:100D60001CB5022001213E236E22CDE9001028216E
:100D70001046FFF7E0FE00F0AFFA1CBD1CB50220E4
:100D8000012130237C22CDE9001019467120FFF7A4
:100D9000D2FE00F0A1FA1CBD1CB5002000903E233D
:100DA0005F22282101901046FFF7C5FE00F094FA5B
:100DB0001CBD1CB5002000903E236E22282101900E
:100DC0001046FFF7B8FE00F087FA1CBD1CB50020E6
:100DD000009030237C22194601907120FFF7ABFE72
:100DE00000F07AFA1CBD70B50646002415E004F147
:100DF000B001C8B200F0A6FA012000F0A3FA10205A
:100E000000F0A0FA002504E0304600F0C5FA681CA6
:100E1000C5B2802DF8DB601CC4B2082CE7DB70BDC6
:100E200008B50121082000F0F3FA4FF4F070ADF896
:100E3000000010208DF8030003208DF802006946A1
:100E40003948FFF762FC4FF4F0713748FFF7F3FCC5
:100E50004FF480713448FFF7EEFC20213248FFF751
:100E6000E8FC642000F0B2FE20212F48FFF7E3FCED
:100E7000AE2000F067FA002000F064FA102000F0C5
:100E800061FA402000F05EFA812000F05BFACF208A
:100E900000F058FAA12000F055FAC82000F052FAEC
:100EA000A62000F04FFAA82000F04CFA3F2000F0F6
:100EB00049FAD32000F046FA002000F043FAD5208A
:100EC00000F040FA802000F03DFAD92000F03AFA14
:100ED000F12000F037FADA2000F034FA122000F0A6
:100EE00031FADB2000F02EFA402000F02BFA20200F
:100EF00000F028FA022000F025FA8D2000F022FAF6
:100F0000142000F01FFAA42000F01CFAA62000F024
:100F100019FAAF2000F016FA0020FFF764FF002155
:100F2000084600F0FBF908BD000C01402DE9F04730
:100F300081460F4690460024002601256DE00024DE
:100F4000012513E03848005D18F8061088420BD1DF
:100F50003549601C095C701C18F80000814203D1FF
:100F6000C4EBC400450005E0A01CC4B22E48005DDF
:100F70007F28E7DC00BFB9F1760F03DD4FF00009F1
:100F8000781CC7B23946484600F0C8F9012D21D077
:100F90003946484600F0C2F9002407E02349485D7D
:100FA00000F0FAF9681C85B2601CC4B20E2CF5DBA7
:100FB000781CC1B2484600F0B1F9002407E01B4993
:100FC000485D00F0E9F9681C85B2601CC4B20E2CC3
:100FD000F5DB1CE0701CC6B23946484600F09EF9AD
:100FE000002404E0002000F0D7F9601CC4B2102CEB
:100FF000F8DB781CC1B2484600F090F9002404E008
:10100000002000F0C9F9601CC4B2102CF8DB09F113
:101010000E0000F0FF09B01CC6B218F80600002848
:101020008DD1BDE8F0870000732A0008DC2A000893
:101030007CB505460E461446002C04DA2D208DF8AA
:101040000000644202E02B208DF8000042F20F7095
:10105000844239DD401C94FBF0F03030C0B28DF892
:10106000010042F2107094FBF0F100FB11404FF4CC
:101070007A7190FBF1F03030C0B28DF80200084672
:1010800094FBF0F100FB1140642190FBF1F0303053
:10109000C0B28DF80300642094FBF0F100FB114016
:1010A0000A2190FBF1F03030C0B28DF804000A2024
:1010B00094FBF0F100FB11403030C0B28DF8050018
:1010C00000208DF8060088E0B4F57A7F30DB4FF41D
:1010D0007A7094FBF0F03030C0B28DF801004FF41C
:1010E0007A7094FBF0F100FB1140642190FBF1F069
:1010F0003030C0B28DF80200642094FBF0F100FBA8
:1011000011400A2190FBF1F03030C0B28DF803009D
:101110000A2094FBF0F100FB11403030C0B28DF892
:10112000040020208DF8050000208DF8060054E012
:10113000632C24DD642094FBF0F03030C0B28DF8D5
:101140000100642094FBF0F100FB11400A2190FBA8
:10115000F1F03030C0B28DF802000A2094FBF0F1BB
:1011600000FB11403030C0B28DF8030020208DF814
:1011700004008DF8050000208DF806002DE0092CF4
:101180001ADD0A2094FBF0F03030C0B28DF8010077
:101190000A2094FBF0F100FB11403030C0B28DF812
:1011A000020020208DF803008DF804008DF8050062
:1011B00000208DF8060010E004F13000C0B28DF878
:1011C000010020208DF802008DF803008DF8040046
:1011D0008DF8050000208DF806006A463146284645
:1011E00000F002F87CBD00002DE9F0470446884677
:1011F00015464FF000090026002720E0E85D203862
:1012000000F0FF097E2C04DD002408F1010000F04D
:10121000FF084146204600F081F8002609E009EB6E
:101220004901094A02EB4101885D00F0B5F8701CE4
:10123000C6B2062EF3DBA01DC4B2781CC7B2E85DAF
:101240000028DBD1BDE8F087182700082DE9F0471A
:1012500007460D46904600260024A1466806050E66
:1012600031E018F809002038C6B2782F02DD0027D7
:10127000681CC5B22946384600F050F8002407E043
:1012800004EB0611134A505C00F086F8601CC4B2EF
:10129000082CF5DB681CC1B2384600F03FF800248A
:1012A00008E004EB061108310A4A505C00F074F8BB
:1012B000601CC4B2082CF4DB07F10800C7B209F1C6
:1012C000010000F0FF0918F809000028C9D1BDE8A5
:1012D000F08700008C30000870B5002418E004F19D
:1012E000B001C8B200F02EF8002000F02BF810205A
:1012F00000F028F8002507E0074901EBC501085D6B
:1013000000F020F8681CC5B2802DF5DB601CC4B26B
:10131000082CE4DB70BD0000200D002070B50446F1
:101320000D4605F1B001C8B200F00CF8102141EAF9
:10133000141000F007F804F00F0141F0010000F074
:1013400001F870BD70B50446082569011148FFF722
:1013500070FA80210F48FFF76CFA15E004F0800066
:1013600020B140210B48FFF766FA03E0402109480D
:10137000FFF75FFA80210748FFF75DFA80210548F3
:10138000FFF757FA6006040E2800A5F10101CDB25F
:10139000E4D170BD000C014070B504460825690118
:1013A0001148FFF748FA80210F48FFF742FA15E08D
:1013B00004F0800020B140210B48FFF73CFA03E025
:1013C00040210948FFF735FA80210748FFF733FA33
:1013D00080210548FFF72DFA6006040E2800A5F1CC
:1013E0000101CDB2E4D170BD000C01407047000096
:1013F00029B1064A52690243044B5A6104E0034A88
:1014000052698243014B5A6170470000001002404C
:1014100029B1064A92690243044B9A6104E0034AE7
:1014200092698243014B9A617047000000100240AC
:10143000704710B500F002F810BD00000CB5002098
:10144000019000903348006840F4803031490860D2
:1014500000BF3048006800F4003000900198401C44
:101460000190009818B90198B0F5A06FF1D1294802
:10147000006800F4003010B10120009001E000206D
:1014800000900098012843D12348006840F01000E4
:10149000214908600846006820F0030008600846FB
:1014A000006840F0020008601A4840681949486026
:1014B0000846406848600846406840F480604860DC
:1014C0000846406820F47C1048600846406840F4B4
:1014D000E81048600846006840F08070086000BF6F
:1014E0000C48006800F000700028F9D009484068F6
:1014F00020F00300074948600846406840F00200B9
:10150000486000BF0348406800F00C000828F9D18B
:101510000CBD00000010024000200240024A106092
:10152000024A1160704700002C00002034000020A7
:101530001CB5FFF7C9FA012000903F233B2226216A
:1015400001900320FFF7D2FB0120009036230C22EC
:10155000282101901046FFF7EEFA012000903E236B
:1015600016222D2101901046FFF7E5FA0120009088
:1015700032232022282101901046FFF7DCFA0120B7
:10158000009038233A22194601902020FFF7D3FA21
:101590000120009038232D22114601901046FFF7BC
:1015A000CAFA012000902F233A22194601903220D6
:1015B000FFF7C1FA01231A4612213220FFF714FB6C
:1015C000012000903F237D22262101904520FFF736
:1015D0008DFB012000902E234F22194601904520BB
:1015E000FFF7A9FA012000902E234F222821019015
:1015F0001046FFF7A0FA0120009038234F22194629
:1016000001904520FFF797FA012000903E234F22DA
:10161000382101901046FFF78EFA01200090342304
:101620005622322101905220FFF760FB01200090EA
:101630003E235A222A2101901046FFF77CFA01200E
:10164000009035236B22262101906420FFF74EFB8A
:101650000120009037237C22194601907120FFF76A
:101660006AFA01231A4612214820FFF7BDFA012029
:10167000009018235422014601902C20FFF736FBDE
:101680000320012115233922CDE900100F2131203B
:10169000FFF72CFB0420012115234F22CDE9001078
:1016A0000F214720FFF722FB05230122322134209E
:1016B000FFF79AFA0523012233213420FFF794FA29
:1016C0000523012232213520FFF78EFA052301225E
:1016D00033213520FFF788FA062301222C217820B8
:1016E000FFF782FA062301222C217920FFF77CFAEA
:1016F000062301222D217820FFF776FA0623012206
:101700002D217920FFF770FAFFF7E6FD1CBD0428B4
:1017100008D14FF0E021096941F004014FF0E022C7
:10172000116107E04FF0E021096921F004014FF059
:10173000E02211617047704710B51348006840F00F
:1017400001001149086008464068104908400E49E8
:101750004860084600680E4908400B490860084682
:10176000006820F4802008600846406820F4FE00ED
:1017700048604FF41F008860FFF75BFE4FF0006089
:101780000449086010BD0000001002400000FFF88E
:10179000FFFFF6FE08ED00E01AB183890B43838159
:1017A00002E083898B4383817047000070B5002479
:1017B00000220023058C4FF6FE7635400584028C0E
:1017C0008388048B4FF68F752C40B51E2C400D88F6
:1017D0002C43751E2A400D892A434D882A43144DF7
:1017E000A8420BD0134DA84208D0134DA84205D0F3
:1017F000124DA84202D0124DA84213D14FF6F775F0
:101800002A404D892A434FF6FB752A408D882A438A
:101810004FF6FF652B404FF6FF552B408D892B432C
:10182000CD892B4383800483CD888586028470BD57
:10183000002C0140003401400040014000440140C0
:1018400000480140002202881D4B98420ED01D4BDB
:1018500098420BD0B0F1804F08D01B4B984205D076
:101860001A4B984202D01A4B984204D14FF68F730C
:101870001A404B881A43174B984207D0164B984290
:1018800004D04FF6FF431A40CB881A4302808B885E
:1018900083850B8803850A4B98420BD0094B9842ED
:1018A00008D00E4B984205D00D4B984202D00D4BFC
:1018B000984201D10B7A038601238382704700008E
:1018C000002C0140003401400004004000080040AA
:1018D000000C004000100040001400400040014097
:1018E000004401400048014000B593B001210420AC
:1018F000FFF78EFD4FF48070ADF82C0018208DF8A6
:101900002F0003208DF82E000BA92748FEF7FDFEBF
:101910000121C802FFF77CFD5920ADF844000020EA
:10192000ADF84000ADF84600ADF8420010A91F48E0
:10193000FFF788FF6020ADF830000120ADF83200DD
:101940000020ADF83600ADF838000CA91748FFF7B5
:101950002DFF01210846FFF74BFD1548FEF710FE4D
:1019600012483430009013480190102002902A2031
:101970000390002004908020059040000690800095
:101980000790002008904FF40050099000200A9022
:1019900069460748FEF79AFE012211020348FFF745
:1019A000FBFE13B000BD000000080140002C014008
:1019B0001C000240A00A002010B540F225511D482D
:1019C00000F03EF810B31B4800F064F8C4B21A48A7
:1019D000008800F40040C8B91748008800F480402F
:1019E00060B10A2C03D000201349088020E012487F
:1019F000008840F400401049088019E00D2C06D101
:101A00000D48008840F480400B49088010E00A48E7
:101A10000088C0F30D0009490C5407480088401C99
:101A20000549088008460088C72801DD0020088095
:101A300010BD0000003801402400002020310020AB
:101A400070B50246002400230025002040F66A16E7
:101A5000B14200D100BFC1F3421501F01F030126BE
:101A600006FA03F3012D02D19689334006E0022DD8
:101A700002D1168A334001E0968A33400C120126C7
:101A800006FA04F41688344013B10CB1012000E0CA
:101A9000002070BD01468888C0F30800704700BF71
:101AA000FEE700BF7047014600BF70472A482B4938
:101AB000096800EB81102A490968405C10B90020D0
:101AC0002849887024482549096800EB8110244979
:101AD0000968405C012801D1224988701E481F49CD
:101AE000096800EB81101E490968405C022801D199
:101AF0001C49887018481949096800EB8110184979
:101B00000968405C032801D11649887012481349BE
:101B1000096800EB811012490968405C042801D172
:101B2000104988700C480D49096800EB81100C4978
:101B30000968405C052801D10A49887006480749B0
:101B4000096800EB811006490968405C062801D14C
:101B50000449887070470000201100202C000020EC
:101B600034000020280000200621064880F82C10B0
:101B7000403080F82C10403880F82D10403080F82C
:101B80002D107047202F002010B56FF00400FFF7D4
:101B9000BEFD0A4800680A49B0FBF1F00949087027
:101BA0000846007800EB4001C1EBC0104FF6FF7112
:101BB00001EAC0000449088010BD000008000020B0
:101BC00000127A001C0000201E0000200146114A6D
:101BD00012884A434FF0E0235A6100229A611A4664
:101BE000126942F001021A6100BF4FF0E022106951
:101BF00000F001021AB100F48032002AF5D04FF053
:101C0000E022126922F001024FF0E0231A61002263
:101C10009A6170471E0000202DE9F04105460E46EE
:101C200017460024344606E0E9B2E0B2012200F093
:101C300052F8601C84B2BC42F6DDBDE8F0812DE9AB
:101C4000F04105460E4617461C463A4629463046A0
:101C5000FFF7E2FF3A4629462046FFF7DDFF22461E
:101C60003146284600F007F822463146384600F053
:101C700002F8BDE8F0812DE9F04105460E46174611
:101C80000024344606E0E1B2E8B2012200F023F875
:101C9000601C84B2BC42F6DDBDE8F0812DE9F0475E
:101CA00006460F4690469946DDF820A00024002500
:101CB00034460CE03D4606E0E9B2E0B2524600F0A0
:101CC0000AF8681C85B24D45F6DD601C84B24445B7
:101CD000F0DDBDE8F08770B504460D461646802C51
:101CE00001DA402D00DB70BD32462946204600F067
:101CF00061F800BFF7E72DE9F04105460F461646AB
:101D000098460820FEF7A7FA044625806780A6803B
:101D1000A4F80680204600F03BFA2046BDE8F0819A
:101D2000F8B504460D4622480078A84200D1F8BD17
:101D30001F480078854219DA002000906688E788FD
:101D40003E44B3B22688A7883E44B2B26188208858
:101D5000FFF7A4FF6688E7883E44B3B22688A788C9
:101D60003E44B2B261882088FFF769FFA0886843CB
:101D7000642190FBF1F02188084486B2A0880C49C8
:101D800009784843642190FBF1F02188084487B228
:101D9000012000906088E288104483B26188324656
:101DA0003846FFF77BFF0248057000BFBFE7000021
:101DB0009F0A00202DE9F04705460C4617460026ED
:101DC000B146B0467F2D01DC402C01DDBDE8F08737
:101DD0002046E11704EB5171C910C1F10701CEB2E1
:101DE000E11704EB5171C910A4EBC10101F0FF0927
:101DF000C9F107010120884000F0FF0857B11048E1
:101E000000EBC500805D40EA08000D4901EBC5010B
:101E1000885509E00A4800EBC500805D20EA08000B
:101E2000074901EBC50188552146284600F098F97D
:101E3000034901EBC501885DFFF7AEFA00BFC5E7B6
:101E4000200D002090B0142227A10BA8FEF759FA0C
:101E50002AA103C9CDE9090114222AA104A8FEF789
:101E600050FA2DA207CA01AB07C3FFF78DFEFEF79C
:101E700069FBFEF70FFEFFF737FDFEF7D1FFFEF718
:101E8000B9FD00F0A7F9002026490860FEF731FEF1
:101E900001AA00212320FFF749F808236F2214210B
:101EA0000920FFF728FF20490860002408E0E1B27C
:101EB0001D480068FFF734FF1E20FFF787FE641CF3
:101EC000642CF4DD4FF49670FFF780FEFEF711FEF0
:101ED0000BAA00210846FFF729F809AA03212420AC
:101EE000FFF724F800BFFEE7C7E5BBAAB4F3D1A70C
:101EF000C2BCC8A1CDA8D6AACAE90000D4DAB5C828
:101F0000C4E30000C2BCC8A1CDA8D6AACAE9C9FAD8
:101F1000B3C9D6D000000000B8DFBFBCBCD3D3CD5E
:101F200000000000808121420400002010B504461A
:101F30007E48006810B900207D4908607D4800682F
:101F400010B900207C490860784800687F2802DDCD
:101F5000002076490860774800683F2802DD0020AD
:101F600074490860062C33D1744970480068401CDD
:101F700001EB80106F490968405C012826D06B484E
:101F800000686B4908606B4800686B4908606748E7
:101F90000068401C65490860664A1178634A1078F9
:101FA00000230122FEF720FE64486149096800EB26
:101FB000811061490968405C012807D05E4A1178A8
:101FC0005B4A107800231A46FEF70EFEFFF784F9ED
:101FD000042C36D159485549096800EB8111554800
:101FE0000068401E085C012829D05048006850490C
:101FF000086050480068504908604E480068401E1C
:102000004C4908600A461178484A1078002301229A
:10201000FEF7EAFD00204A498870484844490968AB
:1020200000EB811044490968405C012807D0424A0E
:1020300011783F4A107800231A46FEF7D5FDFFF7C6
:102040004BF9052C36D139480068401E3B4901EB5D
:10205000801038490968405C012829D0334800685D
:102060003349086033480068334908602F480068E6
:10207000401E2E4908602F4A11782C4A1078002300
:102080000122FEF7B1FD00202D4988702B48284918
:10209000096800EB811028490968405C012807D0D5
:1020A000254A1178224A107800231A46FEF79CFD33
:1020B000FFF712F9032C36D120481C49096800EBC0
:1020C00081111C480068401C085C012829D0174871
:1020D00000681749086017480068174908601548E4
:1020E0000068401C134908600A4611780F4A1078AE
:1020F00001231A46FEF778FD0020114988700F4829
:102100000B49096800EB81100B490968405C012804
:1021100007D0094A1178064A107800231A46FEF7BC
:1021200063FDFFF7D9F800F00DF810BD2C0000207A
:102130003000002034000020380000202011002052
:1021400028000020034800780349087003480078FD
:10215000487070472C000020280000203400002028
:1021600070B505460C462646E11704EB5171C910BF
:10217000C1F1B701C8B2FFF7E5F8102141EA151027
:10218000FFF7E0F805F00F00FFF7DCF870BD000086
:10219000F8B50446002000906588E6883544ABB267
:1021A0002588A6883544AAB261882088FFF776FD85
:1021B0006588E6883544ABB22588A6883544AAB23E
:1021C00061882088FFF73BFD002001490870F8BDB9
:1021D0009F0A00202DE9F04F87B0002500200690CF
:1021E000804681468246002400268346059004905E
:1021F0000027FEF723FBFEF77CFCFFF7B5FC02206F
:10220000FFF7E4FCF64890F82C000390F54880783E
:102210000290DFE1FEF720FB0546F248C078002877
:102220007ED1F148807898B9F048072380220021B8
:1022300000900846FEF79EFCEDA207211420FEF751
:10224000D3FF0120E84988704FF4FA70FFF7BEFC15
:10225000012D3DD1E4488078012839D108F10108E9
:10226000B8F1010F01D1FEF744FCE548022310222A
:10227000002100900846FEF77DFCE2A2002111201B
:10228000FEF7B2FFE4A201211120FEF7ADFFE7A2A5
:1022900002211120FEF7A8FFE9A203211120FEF779
:1022A000A3FFECA204211120FEF79EFFEEA2052160
:1022B0001120FEF799FFF1A206211120FEF794FFED
:1022C000F3A207211120FEF78FFF0220C649887074
:1022D000032D3BD1C4488078022837D109F1010988
:1022E000B9F1010F01D1FEF704FCED480323802270
:1022F000012100907020FEF73DFCEAA201212D2073
:10230000FEF772FFEAA202210846FEF76DFFBC4805
:1023100006231022042100900020FEF72BFC00E091
:10232000B2E0E8A204211120FEF75EFFDC4807239B
:102330008022052100907020FEF71CFCE1A20621FE
:102340003720FEF751FF0320A7498870032D19D1CC
:10235000A5488078032815D10AF1010ABAF1010FC6
:1023600010D1FEF7C6FB05214020FFF7D7F8012367
:102370001A4605214020FEF737FCFFF7D9F8042064
:10238000994988709848807804287DD1641C284633
:10239000FFF7CCFDFFF78AFBCDA207210120FEF756
:1023A00023FF9048027807210820FEF741FE8D4860
:1023B000427807211C20FEF73BFE1E20B4FBF0F103
:1023C00000FB114038B93C20B4FBF0F100FB114098
:1023D00008B1FEF7B7FC1E20B4FBF0F100FB114082
:1023E00038B93C20B4FBF0F100FB114008B9FEF70E
:1023F000D3FC3720B4FBF0F100FB114038B96E205C
:10240000B4FBF0F100FB114008B1FEF7A9FC372046
:10241000B4FBF0F100FB114038B96E20B4FBF0F1D1
:1024200000FB114008B9FEF7C4FC2820B4FBF0F112
:1024300000FB114038B95020B4FBF0F100FB114013
:1024400008B1FEF79BFC2820B4FBF0F100FB114023
:1024500038B95020B4FBF0F100FB114008B9FEF789
:10246000B5FC60488078022802D101205D49C8701F
:102470005C488078032810D1761C012E0DD1594A72
:1024800051781078002300E04DE01A46FEF7ACFBCF
:102490002A210620FFF742F80127524880780528B4
:1024A00010D10BF1010BBBF1010F0BD14D4A51784B
:1024B000107800231A46FEF797FB05214020FFF70E
:1024C0002DF8002747488078042813D10598401C30
:1024D0000590FFF7EBFA059801280BD1414A517896
:1024E000107800231A46FEF77FFB33214620FFF7C2
:1024F00015F80227012F04D176A207216420FEF7E8
:1025000073FE27B975A207216420FEF76DFE022F26
:1025100009D174A206215E20FEF766FE73A2072190
:102520006120FEF761FE2F48C07801281BD1761C80
:10253000012E18D1FEF7DDFA6EA205210846FEF73E
:1025400085FE6F4804238022002100900846FEF794
:1025500011FB6CA206217020FEF746FE6AA207213D
:102560006420FEF741FE1F48807806282BD104988E
:10257000401C04900498012804D103201949C87014
:10258000FEF7B7FA5E480423802200210090084637
:10259000FEF7F0FA5EA206212320FEF757FE59A2AD
:1025A00006217020FEF752FE57A207216420FEF795
:1025B0004DFE4FF4FA70FFF709FB4FF4FA70FFF786
:1025C00005FB01200690022D01D1012006900698FE
:1025D00000B100E01EE600BF07B0BDE8F08F0000CC
:1025E000202F0020280000209C0A00203C00002012
:1025F000507265737320506C6179204B65790000CF
:102600003C0800204E6F77206576696C2069732046
:10261000696E2074686500006169722E416E6420E5
:10262000552C6D79206465657200000073747564C3
:10263000656E742C697427732074696D65000000E1
:10264000746F2020646573746F72792020746865DC
:1026500000000000456E6572677920506561726CFC
:102660002C20616E640000007361766520746865DB
:102670002070656F706C652100000000497427733D
:1026800020612064616E6765726F757300000000E1
:102690007461736B2E476F6F64204C75636B210000
:1026A0005C0800204D61737465722052454E000035
:1026B000492077696C6C20747279206D792062658D
:1026C0007374000054616B65204361726500000003
:1026D000500000004D617A650000000042617365A2
:1026E000000000004C61736572000000547261705C
:1026F0000000000047414D45204F56455200000064
:102700007C0800206279000053696E6500000000BB
:10271000594F552057494E000000000000000000AE
:10272000002F000000000700070000147F147F1432
:1027300000242A7F2A1200626408132300364955B8
:10274000225000000503000000001C224100000090
:1027500041221C000014083E08140008083E080826
:10276000000000A060000008080808080000606081
:102770000000002010080402003E5149453E0000C0
:10278000427F4000004261514946002141454B31A2
:10279000001814127F10002745454539003C4A496E
:1027A00049300001710905030036494949360006E0
:1027B0004949291E00003636000000005636000048
:1027C00000081422410000141414141400004122C3
:1027D000140800020151090600324959513E007C9B
:1027E0001211127C007F49494936003E4141412285
:1027F000007F4141221C007F49494941007F09096E
:102800000901003E4149497A007F0808087F00001D
:10281000417F4100002040413F01007F08142241D8
:10282000007F40404040007F020C027F007F040890
:10283000107F003E4141413E007F09090906003EEC
:102840004151215E007F0919294600464949493115
:102850000001017F0101003F4040403F001F204038
:10286000201F003F4038403F0063140814630007F6
:102870000870080700615149454300007F4141004D
:1028800000552A552A55000041417F0000040201ED
:1028900002040040404040400000010204000020CB
:1028A00054545478007F4844443800384444442009
:1028B00000384444487F00385454541800087E09B6
:1028C00001020018A4A4A47C007F0804047800007E
:1028D000447D4000004080847D00007F102844003B
:1028E0000000417F4000007C04180478007C08044C
:1028F000047800384444443800FC24242418001888
:10290000242418FC007C0804040800485454542073
:1029100000043F444020003C4040207C001C2040FC
:10292000201C003C4030403C004428102844001C3F
:10293000A0A0A07C004464544C4414141414141437
:10294000C7E5BBAAB4F3D1A7C2BCC8A1CDA8D6AA7B
:10295000CAE9000040404837FC104083F860402F2F
:10296000FE080813FC2208E3F8220823F8220822B4
:10297000282210044004480858086018C029404A1A
:10298000440844093C0100FFFE0100010001000170
:1029900000010001000100010001000104FFFE012F
:1029A00000028002800240044004200810100E60E3
:1029B00004000022081108111000207FFE40028050
:1029C000041FE000400184FFFE010001000100053A
:1029D0000002000040204017FC104083F8404047B0
:1029E000FE100013F82208E3F8220823F822082238
:1029F00028021008800888109030E05180968410DA
:102A000084107C11000100FFFE01000100010001A3
:102A100000010001000100010001000100FFFE01B2
:102A200000010002800280044004400820101020B1
:102A300008C00620002000207C7E444844884408CA
:102A4000440844FF44084414441444227C22444271
:102A50000080000220021002083FE0022002200253
:102A6000200220FFFC0204020402040204022802E5
:102A7000100200B1B1BEA9C1FAC7F0C7F1BFC6BC10
:102A8000BCBFAAB7A2B0E5D6C7C4DCB3B5CAD7D11C
:102A9000A1D2BABEA7CAD2CEC2B6C8B0B4BCFCB42A
:102AA000CEB5E7D1B9C7E5BBAAB4F3D1A7C2BCC8BC
:102AB000A1CDA8D6AACAE9B3C2BABAB3CFC2BDBA29
:102AC000A3C5B8C9FAB3C9D6D0BBB6D3ADC4E3D495
:102AD000DAB5C8B8DFBFBCBCD3D3CD0020202020DE
:102AE000FF000000FF4020301810301808047F005D
:102AF00000003F40404040780404E424242526247C
:102B00002424E40604002010190D41817F010105F1
:102B10000D3810001010101010FF10F0121CD01003
:102B200010104020100C0310083F424140404070FC
:102B30000000FE8484848482828282C080002020FF
:102B40003F20202020203F202020302000FC242473
:102B5000E2222200FE0222528E02101F10080F08ED
:102B60000800FF000808100F129272FE5191002217
:102B7000CC0000FF0000020100FF00040404020278
:102B800002FF01010888FF482800C848487F48C85C
:102B9000480841807F00404020130C0C1221602027
:102BA00042424242FE42424242FE424242424020B1
:102BB000100C03000000007F00000000103E101009
:102BC000F09F909092941C1010102010888741461E
:102BD0002810282740C0400010D0FF509000FE620F
:102BE000A22221A1610003007F00110E4120110AE1
:102BF0000E3160201413927E325292007C44444481
:102C00007C00010100FF494949494949FF00000092
:102C1000B897929094B810007F4848447420FF0AF7
:102C20000A4A8A7F00003F44444272200484C4A4BC
:102C30009C8784F48484848484000404040404044D
:102C400004FF0404040404040404E42526342C24AE
:102C50002426E504040400007F25252525252525B7
:102C60007F0000004042CC00504EC8487FC8484812
:102C7000400040201F2048464140404748484E40C1
:102C80006106E01884E41C8465BE24A4640404FF87
:102C9000000100FF4121120C1B61C0400000007EBA
:102CA0002A2A2A2A2A2A7E0000007F252525257F18
:102CB00000007F252525257F102C24A464252624AB
:102CC00024A424342C044048494949497F494949AE
:102CD0004B484040218670007E4A4A4A4A4A7E005C
:102CE0000000FE01407F41417F41417F41417F40E3
:102CF00000FC042424FCA5A6A4FC24242404601FB6
:102D0000808042462A12122A2642C0401010FF90AC
:102D100050988888E98E8888988842817F00404052
:102D2000262518081631602030EF28284464DC106E
:102D300054FF54547C10017F215122140F14253F5D
:102D400045454544021CC0304C300F08F80808289F
:102D500018085E4320201008040301060830602094
:102D600000F848484848FF48484848F80000000F25
:102D7000040404043F444444444F407000FE0242B3
:102D8000424242FA42424262420218272020202058
:102D9000203F20212E2420201060028C0044545417
:102DA000547F5454544404047E010000FF1515154B
:102DB00055957F00201008FC032020107F88888410
:102DC00082E004040405040404FF0404040404046D
:102DD00020202020202020FF202020202020808054
:102DE0004020100C0300030C10204080403011964E
:102DF0009090919690909814135004040404044405
:102E0000847E060504040404808082929292929249
:102E1000929292FE8080404022241048807F0408D5
:102E2000182422400202FE929292FE0206FC040442
:102E300004FC08180F080804FF04844027182740E2
:102E40004042CC0000E2222A2AF22A2622E08040D8
:102E50003F4080FF898989BF89A9C9BF20180F0811
:102E6000F808080000FC040404FC8141310D030D46
:102E70007101003F1010103F000008080808FF080B
:102E80000808F9020400010101010101FF0101012B
:102E90002141211F00FE225A86088868180FE80881
:102EA000080800FF04080720110D41817F01050972
:102EB0001060020CC0021EE2020202E21E000404C4
:102EC0007C0380804020130C132040804042CC00C3
:102ED00000F888888808FF0809CA00003F90681F2A
:102EE00010209F402718264100FE0222DA06808823
:102EF0008888FF88888800FF08100807007C404009
:102F00007F4040FC1060020CC01008F71454941469
:102F1000F40404047C0300011D13115599513F1161
:102F200000FE1222C23A0200FC061544847C003FD7
:102F30002423202720101312125292428040301E68
:102F4000101010FF1010101010104040424242426A
:102F5000427F4242424242400000F8888888880806
:102F600008FF08090AC880601F0010201F80402148
:102F7000161826410000F010101010FF101010104D
:102F8000F00000000F04040404FF040404040F0014
:102F900004244484649C40300FC808082818100892
:102FA0000601824C2018060106182040404042CC01
:102FB0000000FC040200FC0404FC0040201F204030
:102FC0004F4442407F424443008060F8074020184D
:102FD0000F08C8080828010000FF00100C034080FB
:102FE0007F000106080888C8380C0B0808E80808A4
:102FF0000808020100FF40414141417F41414141F8
:1030000008042322262A22FA242322262A0201093E
:1030100009091969090949897D0909090404040490
:10302000F49495969494F404040400FE02027A4AFF
:103030004A4A4A4A7A0282FE202024242424BF6479
:1030400024342824222010080402010D0B09498988
:1030500049390100101010FF1010F00000F80808A6
:1030600008F88040300F40807F00007F2020207FC4
:103070001060028C00F0101010FF101010F004040B
:103080007E0100FF4242427F424242FF00000000B8
:10309000000000000000000000000000000000F838
:1030A00000000000000000333000000000100C069B
:1030B000100C0600000000000000000040C0784036
:1030C000C0784000043F04043F040400007088FC02
:1030D00008300000001820FF211E0000F008F0005A
:1030E000E018000000211C031E211E0000F00888CB
:1030F000700000001E2123241927211010160E0035
:10310000000000000000000000000000000000E0DF
:1031100018040200000000071820400000020418F4
:10312000E00000000040201807000000404080F050
:10313000804040000202010F01020200000000F086
:10314000000000000101011F01010100000000005A
:103150000000000080B070000000000000000000CF
:103160000000000000010101010101010000000058
:1031700000000000003030000000000000000000EF
:1031800080601804006018060100000000E01008CC
:103190000810E000000F102020100F00001010F8A1
:1031A000000000000020203F2020000000700808E0
:1031B0000888700000302824222130000030088860
:1031C000884830000018202020110E000000C02088
:1031D00010F8000000070424243F240000F80888A9
:1031E000880808000019212020110E0000E0108836
:1031F00088180000000F112020110E000038080868
:10320000C83808000000003F000000000070880877
:1032100008887000001C222121221C0000E01008F8
:103220000810E0000000312222110F00000000C051
:10323000C0000000000000303000000000000080EE
:1032400000000000000080600000000000008040DE
:1032500020100800000102040810200040404040F7
:10326000404040000404040404040400000810204A
:10327000408000000020100804020100007048088F
:103280000808F0000000003036010000C030C828F7
:10329000E810E0000718272423140B000000C038B2
:1032A000E0000000203C23020227382008F888882C
:1032B00088700000203F202020110E00C030080838
:1032C00008083800071820202010080008F808080F
:1032D0000810E000203F202020100F0008F8888808
:1032E000E8081000203F20202320180008F88888D4
:1032F000E8081000203F200003000000C03008084C
:103300000838000007182020221E020008F80800D4
:103310000008F808203F210101213F20000808F89B
:10332000080800000020203F2020000000000808BE
:10333000F8080800C08080807F00000008F888C07E
:1033400028180800203F20012638200008F808002F
:1033500000000000203F20202020300008F8F80066
:10336000F8F80800203F003F003F200008F830C078
:103370000008F808203F200007183F00E010080868
:103380000810E0000F10202020100F0008F8080897
:103390000808F000203F210101010000E0100808AA
:1033A0000810E0000F18242438504F0008F88888CF
:1033B00088887000203F2000030C302000708808AF
:1033C000080838000038202121221C00180808F8BD
:1033D000080818000000203F2000000008F808003E
:1033E0000008F808001F202020201F00087888000F
:1033F00000C83808000007380E010000F80800F87F
:103400000008F800033C0700073C03000818688028
:103410008068180820302C03032C30200838C8009E
:10342000C83808000000203F2000000010080808ED
:10343000C83808002038262120201800000000FE8F
:10344000020202000000007F40404000000C30C03B
:1034500000000000000000010638C0000002020267
:10346000FE000000004040407F0000000000040219
:103470000202040000000000000000000000000044
:103480000000000080808080808080800002020434
:10349000000000000000000000000000000080802C
:1034A000808000000019242222223F2008F800809A
:1034B00080000000003F112020110E00000000805D
:1034C00080800000000E11202020110000000080EC
:1034D0008088F800000E112020103F20000080801E
:1034E00080800000001F222222221300008080F032
:1034F000888888180020203F20200000000080805D
:1035000080808000006B94949493600008F80080A1
:1035100080800000203F210000203F2000809898FC
:10352000000000000020203F20200000000000805C
:103530009898000000C08080807F000008F800009C
:1035400080808000203F24022D302000000808F8F1
:10355000000000000020203F2020000080808080AC
:1035600080808000203F20003F20003F808000803E
:1035700080800000203F210000203F20000080804C
:1035800080800000001F202020201F0080800080FD
:103590008000000080FFA12020110E0000000080AC
:1035A00080808000000E112020A0FF80808080009D
:1035B0008080800020203F212000010000008080CA
:1035C000808080000033242424241900008080E0BF
:1035D000808000000000001F20200000808000008C
:1035E00000808000001F202020103F20808080006D
:1035F0000080808000010E3008060100808000807D
:10360000008080800F300C030C300F0000808000A1
:10361000808080000020312E0E31200080808000CC
:103620000080808080818E7018060100008080807C
:10363000808080000021302C22213000000000001A
:10364000807C020200000000003F404000000000BB
:10365000FF00000000000000FF0000000002027CEC
:10366000800000000040403F000000000006010113
:103670000202040400000000000000009C36000864
:1036800000000020A00A00006C0100088839000832
:10369000A00A0020A82D0000C80100089184A24AB9
:1036A000040009370102030406070809180C030384
:1036B00007060E1C7CFCF8E0C00124808080151EEB
:1036C00004081E6C121E12091202A41C0A1C4A7F56
:1036D000010A1EFF011DFEFCF8F09F4A030E0112B5
:1036E000C80E8080C0C0E0E0E0F0F8F8FCFEFE37D5
:1036F0001985B92A1AC026B92519272809FEFCFD03
:10370000F9F3E70F1F0DEE7F7FBFDFEF802DDFCFD7
:10371000C7C339898019701AF049DAFC4B777F3FAB
:103720001F0F0701180A01010103070F1F3F7E87C2
:103730004AE0884AFC271A9F016933790C21E8097D
:10374000FDF9FAF7EFDF9F7F7FD9016946B9010FD5
:10375000158F878783818001080D178183878F9F4D
:10376000BEFEFCF8E7CFDF5708081EE0C09F3F3FD2
:103770007F7F7E19801D07070F0F2A091F29093235
:1037800001380BFEFEFCFCF9F9FBF3F3F701DEE771
:10379000EFEFCF9F6CA12B03078B0D240F0F1F1F83
:1037A000BA0937954808FCFCF1E3871F3F62011A0C
:1037B0002E01010103039519961994094F910B1CD1
:1037C000FEE08001888D808080C0013B80801209EE
:1037D00015017933792C0141ABFEFF01180A7F1FD7
:1037E0001F0F070703030101E11911980A030307DB
:1037F00007070E0E1F7F310521FEFCF8C01CE0E01C
:10380000F0012BE0C0B7E9B41F01070F1F3FBF4A0B
:103810008D3F0F0703744AC0341808F0707070F0C1
:10382000E0E06319112912190F5EF0F0C10107855C
:103830001B7F3F3751195C4B8080343930B1BA3F20
:10384000E32AF88A192C896BDEF8FEFF3F07EF2A7E
:10385000030119EF1C86C6C606191D2A010E5E0754
:1038600007060603A61A01822AE0793A80ACAAF973
:103870006403103F1E1A03E6B98739011AFE0129B5
:10388000088BF3C08F81380E183C7EFFEFCFC3C387
:10389000C1C2C6CEDE016809C6C2C0CF3F1F0F0E2F
:1038A000B82941D9511A7F2059A001131D01070FD2
:1038B0001FB6091401380BFEFCF8F8F0E0E0C0C0B8
:1038C00080013930180D010303070F0F1D1D393911
:1038D00039B9012808999999DFCFC6E0EFFAF84085
:1038E000091B7AA9850B260307010A27062A092343
:1038F0007A0178700B08FC0C0E0F0F2E0CFC085090
:103900000903040808080909071DF8145212016F79
:1039100014F8182422421D0540080804033A8001C7
:10392000014914F010F0000922F00C021E1010D012
:1039300030000D28FC02C12424FCFC2424C102FC1C
:10394000000C1340A0A0101C021C10A0A0401C03DF
:103950000203041901022403000D280102040808CF
:10396000090908080402011D040A050460058D0404
:10397000050A04880BF008046A2AFA6A0408F0DDD4
:083980001A04AB79D900000024
:0400000508000215D8
:00000001FF
